:0300000002018575
:0300C30002010037
:10010000C0E0C082C08390FE82E054BF90FE82F0C7
:10011000C200D083D082D0E032D200748190FE81C0
:10012000F0805190FE86F0D200748290FE81F080C3
:1001300043D200748390FE81F08039D200748490A1
:10014000FE81F0317490FE87E022740090FE82F010
:10015000D200748590FE81F0801A740190FE82F0C6
:10016000D200748590FE81F0800AD200748690FEE1
:1001700081F080002000FD2278007900000000005E
:10018000D9FAD8F82275813F75BA8074E090FE8064
:10019000F0740090FE82F0D2AF311974A031233197
:1001A0003174003123313174003123313174123113
:1001B000233131747831233131316A317831197416
:1001C000A0312331317400312331317400312331B6
:1001D00031311974A131233131313BF580314A314C
:0901E0003BF5A0315A316A80FEA2
:00000001FF
